:020000040000FA
:0600000082EF15F0120072
:020006001200E6
:08000800BBEF0AF0120000003A
:1000100000000000000000000000000000000000E0
:1000200000000000000012000F0EE66E62EC15F0FA
:10003000E5521200050EE66E62EC15F0E552120074
:100040002B0EE66EB4EC10F0E5521EEC15F0000934
:10005000FCE12B0EE66EF5EC13F0E5521EEC15F00C
:100060000009FCE10F0EE66EF5EC13F0E5521EEC14
:1000700015F00009FCE11B0EE66EF5EC13F0E552FD
:100080001200930EE66EE7EC14F0E552F28AF29459
:10009000F184CF6ACE6A810ECD6E1200F28EF28E9E
:1000A000F288F292F18C9D8C9F8C9E9C9D84D08EC8
:1000B000F28C9E6A050EBD6E040E9F6E1200F298C1
:1000C000F29EF29E9D9412000F0EE66E8F0EE66E6B
:1000D000FB0EE66EB6EC12F0E552E552E552120068
:1000E0009492010EE66E03EC15F0E552320EE66EC8
:1000F000E66A52EC13F0E552E5521200D9CFE6FF62
:10010000E1CFD9FF020EE126DE6ADD6A060E086E37
:10011000096A62C00DF063C00EF0A4EC0EF006C0D8
:10012000DEFF07C0DDFFDECF23F0DDCF24F023C0EC
:10013000F3FF24C0F4FF020EE15C02E2E16AE55243
:10014000E16EE552E7CFD9FF1200D9CFE6FFE1CF4C
:10015000D9FF320EE126FD0EDBCFE6FFFE0EDBCF30
:10016000E6FF680E236E240E246E256A23C0E6FF88
:10017000E66E25C0E6FFD9CFE6FFDACFE6FF1BEC3F
:1001800011F0266E070EE15E26501EEC15F00009F8
:10019000FCE1E66A81EC13F0E552D9CFE6FFDACF55
:1001A000E6FF1BEC14F0E552E552320EE15C02E290
:1001B000E16AE552E16EE552E7CFD9FF1200D9CFEF
:1001C000E6FFE1CFD9FF020EE126DE6ADD6A7AC0E2
:1001D00007F07BC008F07CC009F07DC00AF01AEC83
:1001E0000FF008C0DEFF09C0DDFFDECF23F0DDCF5A
:1001F00024F023C0F3FF24C0F4FF020EE15C02E20E
:10020000E16AE552E16EE552E7CFD9FF1200D9CF9E
:10021000E6FFE1CFD9FF140EE126FD0EDBCFE6FFAE
:10022000FE0EDBCFE6FF5F0E236E240E246E256AE2
:1002300023C0E6FFE66E25C0E6FFD9CFE6FFDACFA2
:10024000E6FF1BEC11F0266E070EE15E26501EEC59
:1002500015F00009FCE1400EE66E81EC13F0E5526A
:10026000D9CFE6FFDACFE6FF1BEC14F0E552E552FA
:10027000140EE15C02E2E16AE552E16EE552E7CF7D
:10028000D9FF1200939A819A0AEC0AF0CC0EE66E1E
:100290003AEC0AF0E552440EE66E3AEC0AF0E5520A
:1002A000818A010E0001AC6FAD6BAD3504E2AC513B
:1002B0000808000EAD550AE3640EE66E62EC15F018
:1002C000E5520001AC2B000EAD23EFD7819A0AEC6A
:1002D0000AF0CC0EE66E3AEC0AF0E552BE0EE66E7F
:1002E0003AEC0AF0E55273EC0AF00001896F73EC06
:1002F0000AF00001886F1200D9CFE6FFE1CFD9FFE5
:10030000020EE126DF6A010EDB6A000189390F0B5C
:10031000DF6E010EDB50DF10E76E010EE7CFDBFF73
:100320008839F00BDF6E010EDB50DF10E76E010E37
:10033000E7CFDBFFDB50906F916B020EE15C02E2D6
:10034000E16AE552E16EE552E7CFD9FF1200000104
:1003500089A118D00C6A0D6A800E0E6E3D0E0F6ECC
:100360008CC007F08DC008F08EC009F08FC00AF075
:100370004EEC0DF007C08CF008C08DF009C08EF077
:100380000AC08FF0000189A317D00C6A0D6A0E6AAB
:100390003E0E0F6E8CC007F08DC008F08EC009F0C5
:1003A0008FC00AF04EEC0DF007C08CF008C08DF045
:1003B00009C08EF00AC08FF0000189A518D00C6A20
:1003C0000D6A800E0E6E3E0E0F6E8CC007F08DC053
:1003D00008F08EC009F08FC00AF04EEC0DF007C097
:1003E0008CF008C08DF009C08EF00AC08FF00001BB
:1003F00089A717D00C6A0D6A0E6A3F0E0F6E8CC06B
:1004000007F08DC008F08EC009F08FC00AF04EECE6
:100410000DF007C08CF008C08DF009C08EF00AC046
:100420008FF08CC007F08DC008F08EC009F08FC02F
:100430000AF01AEC0FF008C092F009C093F0120015
:10044000D9CFE6FFE1CFD9FF320EE12600018B5173
:10045000E66EE66A92C0E6FF93C0E6FF90C0E6FF54
:1004600091C0E6FF510E236E240E246E256A23C030
:10047000E6FFE66E25C0E6FFD9CFE6FFDACFE6FF5E
:100480001BEC11F0266E0B0EE15E26501EEC15F0F3
:100490000009FCE1100EE66E81EC13F0E552D9CFB5
:1004A000E6FFDACFE6FF1BEC14F0E552E552320E20
:1004B000E15C02E2E16AE552E16EE552E7CFD9FF85
:1004C00012000001906B916B926B936B1200D9CF6D
:1004D000E6FFE1CFD9FFFD0EDBCFE9FFFE0EDBCF5C
:1004E000EAFFD890E936EA367E0EE926000EEA22C7
:1004F000EF50E66E43EC12F0E552FD0EDBCFE9FF64
:10050000FE0EDBCFEAFFD890E936EA36820EE92606
:10051000000EEA22EECF23F0EFCF24F0F40E086EA7
:10052000010E096E23C00DF024C00EF0A4EC0EF0F5
:100530000650E66E62EC15F0E552010EE66E43ECF5
:1005400012F0E552190EE66E39EC15F0E552E5525F
:10055000E7CFD9FF12000001686B696B6A6B6B6BA8
:100560006C6B6D6B6E6B6F6B706B716B726B736BB7
:10057000746B756B766B776B786B796B606B616B9B
:10058000626B636B646B656B666B676B866B876BAB
:100590001200D9CFE6FFE1CFD9FF060EE126010E0A
:1005A000E66EF5EC13F0E552D6DF78DD6ADD8CDD22
:1005B000640EE66E62EC15F0E552C7EC15F0000E25
:1005C000E66EE66A52EC13F0E552E5525BDEBFDE02
:1005D00093DE36DF76DF00016451651113E166C0FA
:1005E00062F067C063F0460EE66E240EE66EADDD87
:1005F000E552E5523A0EE66E240EE66E08DEE5524E
:10060000E55254D0BEEC15F079DDF3CFDEFFF4CF28
:10061000DDFFD5DD020EF3CFDBFF030EF4CFDBFFF2
:10062000DECFE6FFDDCFE6FF90DDE552E552020EBC
:10063000DBCFE6FF030EDBCFE6FFE9DDE552E55257
:10064000DECF23F0DDCF24F0243404E2235064080D
:10065000000E24540CE3DECF25F0DDCF26F0D89039
:10066000265004E63C0E255C000E26581FE2D950A9
:10067000040FE96EDACFEAFF020EEE1806E1ED5044
:1006800004E1040EDB6A050EDB6AC4EC15F028DD1C
:10069000040EDBCFE6FF050EDBCFE6FF18DFE552E9
:1006A000E552040EDB2A050E01E3DB2AA3EC10F071
:1006B000E76EFE0EE7CFDBFFDB50320801E078D7B4
:1006C000000EE66EE66A52EC13F0E552E552F7DCF6
:1006D000060EE15C02E2E16AE552E16EE552E7CF27
:1006E000D9FF1200D9CFE6FFE1CFD9FFE6526D96D0
:1006F0006F86836A93809492F40E946E9282A0DC4B
:10070000A3EC10F0DF6EFF0EDF5C0CE0DF50310A6F
:10071000F7E1DFCFE6FF3DDFE552010EE66EF5ECD7
:1007200013F05ED01EEC15F00009FCE1E66A81ECE6
:1007300013F0E5522B0E236E240E246E256A23C07F
:10074000E6FFE66E25C0E6FF20EC13F0E552E55229
:10075000E5521EEC15F00009FCE1400EE66E81EC5E
:1007600013F0E5521C0E236E240E246E256A23C05E
:10077000E6FFE66E25C0E6FF20EC13F0E552E552F9
:10078000E5521EEC15F00009FCE1100EE66E81EC5E
:1007900013F0E5520F0E236E240E246E256A23C03B
:1007A000E6FFE66E25C0E6FF20EC13F0E552E552C9
:1007B000E5521EEC15F00009FCE1500EE66E81ECEE
:1007C00013F0E552040E236E240E246E256A23C016
:1007D000E6FFE66E25C0E6FF20EC13F0E552E55299
:0407E000E5528ED779
:0C07E4000100942B0000600000003400B5
:0207F000000007
:0E07F20035EC09F0FB0EDBCFF3FFDB06F35016
:1008000000090AE083EC09F0FA0EEEEC09F0F3E1DE
:10081000241CF1E1010E01D0000E64EF09F035EC6B
:1008200009F03B0EE12402E3E168E652E16E010EBD
:10083000DB6A020EDB6AF90EDBCFF6FFFA0EDBCFC6
:10084000F7FFFB0EDBCFF8FF0800F550DF6EDF503F
:1008500002E188EF08F0250EDF5C02E07BEF08F094
:10086000030EDB6A040EDB6A050EDB6A060EDB6A2A
:10087000070EDB6A9DEC08F02D0EDF5C0CE02B0E02
:10088000DF5C09E0200EDF5C06E0230EDF5C03E0A6
:10089000300EDF5C1AE1DF50300A14E0130A0FE07B
:1008A000030A0AE00B0A05E0060AE4E1030EDB8016
:1008B000E1D7030EDB82DED7030EDB84DBD7030E2A
:1008C000DB86D8D7030EDB88D5D72A0EDF5C1BE189
:1008D00099EC08F0E7EC08F010E0030EDB80086804
:1008E0000968130EDBCF0DF0140EDBCF0EF0A4EC75
:1008F0000EF0040E06C0DBFF03D0130ED0EC08F0A0
:100900009DEC08F00BD0090EDB6A3EEC09F003E029
:10091000B2EC09F0FAD7090ED0EC08F0030EDBB008
:10092000DB982E0EDF5C1BE19DEC08F02A0EDF5CED
:100930000BE199EC08F0E7EC08F003E1130E22EC70
:1009400009F09DEC08F00BD0090EDB6A3EEC09F0D3
:1009500003E0B2EC09F0FAD7090E22EC09F0680EB8
:10096000DF5C07E19DEC08F0680EDF5C1DE1030E23
:1009700018D0740EDF5C17E07A0EDF5C14E0480ECE
:10098000DF5C06E0540EDF5C03E05A0EDF5C02E140
:10099000020E07D06C0EDF5C03E06A0EDF5C04E140
:1009A000010E75EC09F0C9DBDF506E0A01E17FD35F
:1009B0001E0A01E192D1200A01E18FD13F0A01E133
:1009C00049D11A0A01E146D10D0A01E143D1200AB9
:1009D00001E140D13A0A01E13DD1200A01E13AD1D9
:1009E000260A01E135D10D0A01E132D11A0A01E1ED
:1009F000D9D0200A4AE0300A1FE0460A0EE0250A54
:100A000001E083D3D950F90FE96EFF0EDA20EA6EC8
:100A1000010EEE5E000EEE5AEE5A83EC09F0250E42
:100A2000E66E95DB03E1241C01E169D37FEC09F05C
:100A300001E26BD3DB2A69D3080EDB6A040EDB50BC
:100A4000010806E2040EDB0447EC09F0DB508BDB07
:100A5000080EDB5009E0030EDB50010B05E172DBF1
:100A600001E04DD3080EDB6A64DBEFCFDFFFF7EC6C
:100A700009F003E1241C01E142D37FEC09F001E31A
:100A8000DB2A60DB01E141D33AD3070EDB500208D9
:100A90000FE1C3EC09F0030E8AEC09F00E0EEECF65
:100AA000DBFF0F0EEECFDBFF100EEECFDBFF20D013
:100AB000F70EDBCF26F0F80EDBCF27F0020E265E16
:100AC000000E275AF70E26C0DBFFF80E27C0DBFF0B
:100AD00026C0E9FF27C0EAFF7AEC09F0256A0E0E6E
:100AE00023C0DBFF0F0E24C0DBFF100E25C0DBFF91
:100AF0000E0EDBCFE6FF0F0EDBCFE6FF100EDBCFD7
:100B0000E6FFFBEC12F0E552E552E552130E07C08A
:100B1000DBFF140E08C0DBFF060EDB5005E0130EF2
:100B2000BEEC09F001E26ADBE2EC09F002E2130E2E
:100B300037DBA5EC09F006E0040EBEEC09F002E29A
:100B4000050E2EDB030EDBB005D0FCDA01E0D7D2B8
:100B5000080EDB6A090EDB6A0E0EDBCFF6FF0F0E06
:100B6000DBCFF7FF100EDBCFF8FF0800F550DF6E8C
:100B7000DF5014E0E8EC09F011E2F7EC09F003E1D2
:100B8000241C01E1BCD2BBDB01E3DB2A090EDB2A1A
:100B9000D9500E0FE96E000ECBDBE7D7D3DA01E1B7
:100BA000B4D2ADD2C6DA110EEECFDBFF120EEDCF0E
:100BB000DBFF110EDBCFE6FF120EDBCFE6FFEDEC25
:100BC00012F0E552E552130EF3CFDBFF140EF4CF13
:100BD000DBFF060EDB5004E0130ED0DB01E20EDB80
:100BE000E2EC09F002E2130EDBDAAFDB05E0040E03
:100BF000C5DB02E2050ED4DA030EDBB005D0A2DAC3
:100C000001E07DD2080EDB6A090EDB6A110EDBCF34
:100C1000E9FF120EDBCFEAFFEFCFDFFFDF5014E07A
:100C2000D7DB12E2E4DB03E1241C01E168D267DBDD
:100C300001E3DB2A090EDB2A110EDB2ADBCFE9FFF9
:100C4000120EE8E3DB2AE6D77DDA01E15ED257D265
:100C5000030EDB8E070EDB0410E195DB040E5ADB7E
:100C60000A0EEECFDBFF0B0EEECFDBFF0C0EEECF4E
:100C7000DBFF0D0EEECFDBFF6CD0070EDB50030861
:100C80002CE1030EDBAE0DD0B2DA020E76DAEFCF36
:100C900023F0246A256A266A23AE39D024682568A1
:100CA00035D0F70EDBCF24F0F80EDBCF25F0020EA7
:100CB000245E000E255AF70E24C0DBFFF80E25C077
:100CC000DBFF24C0E9FF25C0EAFFEFCF23F00A0EC7
:100CD00023C0DBFF0B0EDB6A38D0070EDB500208A7
:100CE00009E1030EDBAE04D059DB25AE10D00ED0E7
:100CF00055DB0DD0030EDBAE12D079DA020E3DDAF1
:100D0000F9DA256A266A24AE02D025682668E2DA76
:100D10000C0E25C0DBFF0D0E26C0DBFF1AD0F70E30
:100D2000DBCF25F0F80EDBCF26F0020E255E000E9D
:100D3000265AF70E25C0DBFFF80E26C0DBFF25C0C4
:100D4000E9FF26C0EAFFD6DAC5DA0C0EDB6A0D0E23
:100D5000DB6A060EDB5005E1010EF36E050EF3CFE4
:100D6000DBFF150EDB6A160EDB6AD950370F236ED8
:100D7000000EDA20246E390E23C0DBFF3A0E24C0A9
:100D8000DBFF380EDB6A080EDB6A0A0EAEDADF50D4
:100D9000780A12E0200A10E0280A0CE0200A0AE093
:100DA0003F0A06E00D0A02E0200A08E1020E05D023
:100DB000080E03D0080EDF26100E97DA030EDBBEF6
:100DC00002D0DB92DB94DB50800B24E08ADAD890EF
:100DD000030EEB50000A08E6000EEE5C000EEE5823
:100DE000000EEE58000EEE5815E213DA0B680C6890
:100DF0000D680E687EEC12F00A0E02C0DBFF0B0ECF
:100E000003C0DBFF0C0E04C0DBFF0D0E05C0DBFFD3
:100E10002D0E08D0030EDBA202D02B0E03D0DBA4D4
:100E200008D0200EF36E170EF3CFDBFF150EDB2A72
:100E300002D0170EDB6A050EDB5003E1B7D901E1E2
:100E400089D0640E236E2B0E246E000E256E070EC5
:100E5000DBCF26F0276A286A296A26C00BF027C054
:100E60000CF028C00DF029C00EF0D3D940EC14F0DE
:100E700023500224F36E24500320F46E25500420E6
:100E8000F86EF4CFF7FFF3CFF6FF0800090EF5CFA9
:100E9000DBFF580EDF5C0FE1610EF36E090E7BD9AC
:100EA0000AE3200E236E090EDBCFE7FF2350E75E37
:100EB000090EE7CFDBFF070EDBCF23F0246A256A9C
:100EC000266A0FDA23C00BF024C00CF025C00DF009
:100ED00026C00EF0EECF06F0EECF07F0EECF08F012
:100EE000EFCF09F040EC14F009C0EDFF08C0EDFFB2
:100EF00007C0EDFF06C0EFFF390EDBCFE9FFDB06D1
:100F00003A0EDBCFEAFF01E2DB06090EDBCFEFFF93
:100F1000150EDB2A4BD995E1030EDBA61DD06F0E13
:100F2000DF5C06E1C1D918E3150EDB285BDA14D0CB
:100F3000780EDF5C09E0580EDF5C06E0620EDF5CD5
:100F400003E0420EDF5C08E1020EF36E160EF3CFF3
:100F5000DBFF02D0150EDB6A030EDB50100B0EE038
:100F6000040EDBCF23F0050EDB50D880235406E2BD
:100F7000060EDB5003E1040EDB5034DA95D90AE2A9
:100F8000050EDBCFE7FF150EDB50E75E050EE7CF62
:100F9000DBFF02D0050EDB6A040EDBCF23F0160E5A
:100FA00045D9D880235414E2160EDBCFE6FF150E88
:100FB000DBCFE6FF040EDBCFE6FF050EDB50E5528C
:100FC000E75CE552D880E754E552D880E7545FD912
:100FD000030EDB50010B0BE1080EDB5008E0B2D82A
:100FE00001E08DD0080EDB50BED8080EDB6A170E6C
:100FF000DB5007E088D9170EF1D903E1241C01E189
:101000007ED0160EDB5016E07ED9300EE66E9FD8ED
:1010100002E1241C74E077D9DFCFE6FFC0EC11F0C9
:10102000E552E552E552F4CF24F00001F31C02E151
:10103000241C65E0050EDBCF23F0160EDB50D880B4
:10104000235409E2050EDBCFE7FF160EDB50E75E07
:10105000050EE7CFDBFF300EE66E050ECBD94FE174
:10106000390EDB2ADBCFE9FF3A0E01E3DB2ADBCFC7
:10107000EAFF090EEFCFDBFFDB500EE044D9090E8B
:10108000ADD902E1241C3BE0390EDB2ADBCFE9FFBE
:101090003A0EEDE3DB2AEBD755D831E1160EDBCF64
:1010A000E6FF080EC3D8E552E7245DD82ED0070E20
:1010B000DB50030A1CE0010A14E0030A07E07BD9B5
:1010C000DBCFEEFF020EDBCFEDFF1FD0F5D8286A95
:1010D00026AE02D0276828682CD8BCD828C0EEFFDE
:1010E00014D0EAD826BE276824D8B4D80ED063D945
:1010F000DBCFEFFF0AD07BD905E1241C03E1F368C5
:10110000F46810D0FCD801E3DB2A79D924EF04F08D
:10111000010EDBCF23F0020EDBCF24F023C0F3FF60
:1011200024C0F4FF3B0EE15C02E2E16AE552E16EAD
:10113000CBD029D9020E8AEF09F061D90800F55009
:10114000DF6E1200200EE66E080EFAEF09F0C0EC1A
:1011500011F0E552E552E552F3CF23F0F4CF24F03D
:101160000001F31C1200236E246AD950010F4DD9DF
:101170002350EE262450ED221200275E000E285A3E
:10118000F70E27C0DBFFF80E28C0DBFF27C0E9FF02
:1011900028C0EAFF1200DBCFF4FFF350F45C12002A
:1011A000DB50E76E040EE7CFDBFF12000A0EDBCF49
:1011B00023F00B0EDBCF24F00C0EDBCF25F00D0E51
:1011C000DBCF26F023502410251026101200130E1A
:1011D000EECFDBFF140EEDCFDBFF130EDBCF23F0E2
:1011E000140EDBCF24F00001800E24141200F70E41
:1011F000DBCF27F0F80EDBCF28F01200050EDB5016
:10120000E66ED950130F01D9E552E750EE6EED6A44
:1012100012000A0EDBCF06F00B0EDBCF07F00C0E30
:10122000DBCF08F00D0EDBCF09F01200DBCFE6FFBD
:10123000150EDBCFE6FF050EDB50E552E724E55245
:10124000E7241200DB50CED8010EF36E060EF3CF6A
:10125000DBFF1200EE50EFCFEAFFE96E25C0EEFF94
:1012600026C0EEFF27C0EEFF1200D9CFE6FFDACF8F
:10127000E6FFE1CFD9FFE2CFDAFF1200DFCFE6FFD2
:10128000E66A50EC15F0E552E552F3501200E76EB5
:10129000080EE7CFDBFF1200EECF23F0EECF24F0F5
:1012A000EFCF25F0266A1200050EDBCF23F0150ED6
:1012B000DB50D88023541200010EDBCF25F0020E44
:1012C000DBCF26F0276A1200E552E5CFDAFFE7CF41
:1012D000D9FF12000A0E23C0DBFF0B0E24C0DBFF78
:1012E0001200D9500A0F05EF0AF0F36E070EF3CF84
:1012F000DBFF1200EECF23F0EFCF24F01200010E3F
:10130000DB2A020E1200FC0EDBCFE6FFFD0EDBCF68
:10131000E6FF1200235E000E245AF70E23C0DBFF07
:10132000F80E24C0DBFF23C0E9FF24C0EAFF12004F
:10133000DA20EA6EEF2AEECFF6FF000EEF22EECFB4
:10134000F7FFEF22EECFF8FF1200040EDBCFE6FF2F
:10135000130EDB50E552E75C9ADFDB5004DF060E2C
:10136000DB501200090EDB500A0DF350DF24D00FC2
:10137000E76E090EE7CFDBFF9DEF08F0DB50F36E61
:10138000050ECBEF08F0F70EDBCF23F0F80EDBCF26
:1013900024F01200DFCFE6FFA7EF08F028DF030EEE
:1013A000ECDE4CEF09F0F9EC03F0E552E552E552C2
:1013B000E55200091200BDDEEE50EFCFEAFFE96E04
:1013C000010E1200130EDB50F36E040ECBEF08F08B
:1013D000040EDB50F36E090ECBEF08F0DBCFE6FF17
:1013E000A7EF08F0E76E050EE7CFDBFF12008BDFFB
:1013F000CAEF09F0DBCFE6FF86DFD3EF09F0D95063
:10140000F90FE96EFF0E98EF09F0E96E000EDA2091
:04141000EA6E12006E
:0C141400D9CFE6FFE1CFD9FF020EE126A0
:10142000DE6ADD6A93888A989398300EE66E9EECA9
:1014300015F0E5529388180EE66E9EEC15F0E55215
:101440008150100B100A01E0010E236E246A23BEA6
:10145000246823C0DEFF24C0DDFFDF50236E020EB0
:10146000E15C02E2E16AE552E16E2350E552E7CF2A
:10147000D9FF1200D9CFE6FFE1CFD9FFE652DF6AEC
:10148000DFCF23F0080EE76E2318E8AE02D0E73472
:1014900002D0E750235C22E28A989398010EE66E10
:1014A0009EEC15F0E552FE0EDB50010BE8B0938880
:1014B000E8A09398050EE66E9EEC15F0E552938831
:1014C000020EE66E9EEC15F0E552FE0EDB407F0B41
:1014D000E76EFE0EE7CFDBFFDF2AD2D7E552E552FB
:1014E000E7CFD9FF1200D9CFE6FFE1CFD9FF020E37
:1014F000E126DF6A010EDB6A010EDBCF23F0080E66
:10150000E76E2318E8AE02D0E73402D0E750235C40
:1015100024E28A989398000000009388000000005D
:101520000000000000000000000000008150100BCF
:1015300001E0010EF36E010EDB5004E0D890F336AB
:10154000E806FCE1F350DF10DF6E050EE66E9EEC60
:1015500015F0E552010EDB2ACFD7DF5000D0236E05
:10156000020EE15C02E2E16AE552E16E2350E552CF
:10157000E7CFD9FF1200DACFE4FFE2CFDAFFE9CFFD
:10158000E4FFEACFE4FFF6CFE4FFF7CFE4FFF5CFC7
:10159000E4FFF3CFE4FFF4CFE4FFFACFE4FF00EE83
:1015A00000F0140EE80403E3EECFE4FFFBD700EEF7
:1015B00023F0070EE80403E3EECFE4FFFBD7E65287
:1015C000D9CFE6FFE1CFD9FF040EE126DE6ADE6A5D
:1015D000DE6ADD6ADD52DD52F2A41DD0010E00018B
:1015E0006025606F000E6121616F0A0E60190AE1CB
:1015F000615108E1BEEC15F0010E0001646F656BEE
:10160000F29409D0F294DC0EE66E0B0EE66ECBEC93
:1016100014F0E552E552F2A208D0010E0001662551
:10162000666F000E6721676FF2929EA005D09E90B4
:101630000001702B000E71239EA4F0D09E94000137
:101640006C516D110AE1745175110FE164EC14F0E5
:10165000F3CF68F0F4CF69F00ED0010E6C190BE1F6
:101660006D5109E17451751106E164EC14F0F3CF8A
:101670006AF0F4CF6BF000016C2B000E6D23010EAD
:10168000D8806C55000E6D5507E3010E741901E00A
:10169000C5D0755101E0C2D0010E746F756B70C07A
:1016A0001AF071C01BF01C6A0C680D680E6A70C0DD
:1016B00007F071C008F01CC009F0D1EC0EF004C0B6
:1016C0001AF005C01BF006C01CF06AC01DF06BC00C
:1016D0001EF01F6A04501D24176E05501E20186E40
:1016E00006501F20196E68C020F069C021F0226AE0
:1016F0002050175C146E21501858156E225019583E
:10170000166E14C06EF015C06FF00001762B000E3F
:1017100077236AC072F06BC073F06AC068F06BC068
:1017200069F014C008F015C009F038EC0DF007C0DE
:1017300014F008C015F009C016F00AC017F00C6AC2
:101740000D6A7A0E0E6E440E0F6EE4EC0DF007C0BB
:10175000DEFF08C0DEFF09C0DEFF0AC0DDFFDD528C
:10176000DD52D9CFE9FFDACFEAFFEECF14F0EECFAA
:1017700015F0EECF16F0EFCF17F00C6A0D6A480E99
:101780000E6E420E0F6E14C007F015C008F016C0A2
:1017900009F017C00AF049EC0FF0010A04E100015A
:1017A000782B000E792300016C6B6D6B0F0ED880C7
:1017B0007655000E775532E278C008F079C009F00E
:1017C00038EC0DF007C014F008C015F009C016F091
:1017D0000AC017F00C6A0D6A700E0E6E410E0F6E85
:1017E000E4EC0DF007C07AF008C07BF009C07CF093
:1017F0000AC07DF00C6A0D6AC80E0E6E420E0F6EA6
:1018000037EC0EF007C07AF008C07BF009C07CF01E
:101810000AC07DF0C1EC15F0BBEC15F09EACFBD01E
:101820009E9CA9EC15F0F3CF14F0F4CF15F0F3CF94
:1018300008F0F4CF09F03AEC0DF007C096F008C0BC
:1018400097F009C098F00AC099F00C6A0D6AA00ED2
:101850000E6E400E0F6E37EC0EF007C014F008C08D
:1018600015F009C016F00AC017F00C6AC00E0D6E14
:101870007F0E0E6E440E0F6EE4EC0DF007C09AF072
:1018800008C09BF009C09CF00AC09DF01AEC0FF054
:1018900008C086F009C087F03AEC0DF007C018F0D8
:1018A00008C019F009C01AF00AC01BF007C00CF0FC
:1018B00008C00DF009C00EF00AC00FF09AC007F082
:1018C0009BC008F09CC009F09DC00AF04DEC0DF0E3
:1018D00007C014F008C015F009C016F00AC017F0D0
:1018E0000C6A0D6A200E0E6E410E0F6E37EC0EF074
:1018F0001AEC0FF008C0A2F009C0A3F086C008F0EF
:1019000087C009F03AEC0DF007C09EF008C09FF0C8
:1019100009C0A0F00AC0A1F0A2C0E6FFA3C0E6FF84
:1019200086C0E6FF87C0E6FF7B0E146E240E156EA0
:10193000166A14C0E6FFE66E16C0E6FFA40EE66E59
:10194000000EE66E1BEC11F0176E090EE15E1750EB
:1019500096C0E6FF97C0E6FF98C0E6FF99C0E6FF95
:10196000730E146E240E156E166A14C0E6FFE66E32
:1019700016C0E6FFA40EE66E000EE66E1BEC11F03C
:10198000176E090EE15E17501EEC15F00009FCE120
:10199000100EE66E81EC13F0E552A40EE66E000E1A
:1019A000E66E1BEC14F0E552E552A9EC15F0F3CF0E
:1019B00014F0F4CF15F0F3CF08F0F4CF09F03AECBF
:1019C0000DF007C096F008C097F009C098F00AC063
:1019D00099F00C6A0D6AA00E0E6E400E0F6E37EC79
:1019E0000EF007C014F008C015F009C016F00AC0C8
:1019F00017F00C6AC00E0D6E7F0E0E6E440E0F6E49
:101A0000E4EC0DF007C09AF008C09BF009C09CF010
:101A10000AC09DF0C282040EE15C02E2E16AE55276
:101A2000E16EE552E7CFD9FFE55200EE29F0070E4F
:101A3000E80403E3E5CFEDFFFBD700EE13F0140E4F
:101A4000E80403E3E5CFEDFFFBD7E5CFFAFFE5CFF1
:101A5000F4FFE5CFF3FFE5CFF5FFE5CFF7FFE5CFE7
:101A6000F6FFE5CFEAFFE5CFE9FFE5CFDAFF1100AA
:101A7000019E08D0019E09AE05D0086C091EE86AD7
:101A80000922018E09C003F008C002F0136A126A2D
:101A90008E0E046E056AC3EF0FF00F7E016AFFEC35
:101AA0000FF017EC10F001B6A7EF0FF001A20AD06B
:101AB00001AA03D001BEA7EF0FF001A4B3EF0FF00E
:101AC000B0EF0FF001AA05D001ACB3EF0FF0B0EF0B
:101AD0000FF001A00AD001A808D001BE04D001A4D3
:101AE00002D0BCEF0FF0C0EF0FF0126A056A0F5082
:101AF0000A5C116E10E307C013F008C002F009C0C1
:101B000003F00AC010F00CC007F00DC008F00EC0C2
:101B100009F0013A09D00CC013F00DC002F00EC05C
:101B200003F00FC010F0116C019E01BC018E10C0BB
:101B300004F001B0EFEF0FF01A0E1160EFEF0FF0AD
:101B4000046A0A6A01A408D0076C081E091E0A1E4E
:101B5000E86A082209220A2201AC08D0136C021E8E
:101B6000031E041EE86A022203220422066A11529E
:101B700007E00A340932083207320632112EF9D74B
:101B80000750132608500222095003220A5004224B
:101B900006C012F0019E04AE0BD0126C131E021E82
:101BA000031E041EE86A1322022203220422018E6D
:101BB00004A006D0D8800332023213321232102A27
:101BC00010C004F0C3EF0FF0016AFFEC0FF017EC48
:101BD00010F001B6A7EF0FF001A205D001BAA7EFF0
:101BE0000FF0AEEF0FF001BABAEF0FF001A005D081
:101BF00001B8A7EF0FF0BAEF0FF001B8AEEF0FF09A
:101C0000056A7F0E0A24046EE86A05220F50045EFE
:101C1000E86A055A1A0E106E0A6A126A136A026A94
:101C2000036A0C50075E0D50085A0E50095A000EF8
:101C30000A5A09E70C5007260D5008220E500922B7
:101C4000000E0A2201D0128AD890073608360936CB
:101C50000A36D8901236133602360336102EE1D7E4
:101C6000095008100710D8A4128AC3EF0FF0016AB8
:101C7000FFEC0FF017EC10F001B6A7EF0FF001A288
:101C800005D001B8A7EF0FF0AEEF0FF001AA05D015
:101C900001B0A7EF0FF0AEEF0FF001B002D001A836
:101CA00002D0BAEF0FF0056A0F500A24046EE86AFA
:101CB00005227E0E045EE86A055A126A136A026AF9
:101CC000036A0E500902F4CF03F0F3CF02F00D5077
:101CD0000902F3501326F4500222000E03220E5084
:101CE0000802F3501326F4500222000E03220C5077
:101CF0000902F3501226F4501322000E022203228E
:101D00000D500802F3501226F4501322000E022246
:101D100003220E500702F3501226F4501322000E35
:101D2000022203220C500802F4501226000E132245
:101D3000022203220D500702F4501226000E132235
:101D400002220322C3EF0FF009C013F008C012F003
:101D500008500D02F4CF07F0F3CF06F009500E0241
:101D6000F4CF09F0F3CF08F00D02F3500726F4503A
:101D70000822E86A092212500E02F3500726F45096
:101D80000822E86A09220EAECAEF0EF01250085E71
:101D90001350095A13AE000C0D50085E0E50095A2C
:101DA000000C09C013F008C012F007C011F0075072
:101DB0000C02F4CF05F0F3CF04F008500D02F4CF7D
:101DC00007F0F3CF06F00C02F3500526F45006227C
:101DD000E86A072211500D02F3500526F45006223E
:101DE000E86A072209500C02F3500626F450072235
:101DF00009500D02086AE86A0822F3500726F450D9
:101E0000082211500E02F3500626F4500722096AE8
:101E1000E86A0822092212500E02F3500726F450F5
:101E20000822E86A092213500E02F3500826F450E3
:101E30000922000C016AFFEC0FF001B624EF0FF04D
:101E400001A20ED001B405D07F0E096EFF0E086E00
:101E50001FD0800E096E086A1BD0096A086A18D064
:101E600001B0FBD78F0E0A60EDD77E0E0A64F5D75E
:101E70008E0E0A5C05E0D890093208320A2AF8D79B
:101E800001A406D0086C091EE86A092209AEE5D74C
:101E9000120052EC0FF001B6000C01B0000C01B4BE
:101EA000000C010C016AFFEC0FF017EC10F001B60A
:101EB000120001AE08D001A004D001A802D0018018
:101EC0001200019012000F500A5C0BE10E50095CE9
:101ED00008E10D50085C05E10C50075C02E101804F
:101EE0001200D8A002D0018E10D00A500FC00AF004
:101EF0000F6E09500EC009F00E6E08500DC008F0AC
:101F00000D6E07500CC007F00C6E0F500A5C10E00D
:101F1000FF0F09E0019001B403D001AE018412006B
:101F200001AE019412000F2AD8900E320D320C32FD
:101F30000C50075E0D50085A0E50095A09BEEAD7D8
:101F4000D8900736083609360A2EF8D7C8D77F0E3C
:101F50000A6EFF0E096E086E076E12007F0E01BE3C
:101F6000FF0E0A6E02D07F0E0A6E800E096E086A9E
:101F7000076AF3D701AE04D0800E0A6E096AF7D75C
:101F80000A6A096AF4D70350021013101210F8E01D
:101F900005BEF0D703BE0CD004500510EBE0D8907E
:101FA00012361336023603360406D8A00506F2D7D9
:101FB0000550D4E10428D2E012AE11D07F0E1214E5
:101FC00002E113A00CD0132AE86A0222032207E3DD
:101FD000D880033202321332042A0428BFE00450AE
:101FE000C9E013C007F002C008F00334096E0430E2
:101FF0000A6E09320A9E01BE0A8EADEF0FF0093655
:102000000A3602E30184017E06E101800A6A096A58
:10201000086A076A12000A2803E0D8800932120011
:10202000D890093202E101821200018612000E36B8
:102030000F3602E3018C017E06E101880F6A0E6A09
:102040000D6A0C6A12000F2803E0D8800E321200CD
:0A205000D8900E32EAE1018A120076
:06205A0083A673D0F00E16
:102060000001BA6FBB6B8250BA15B96B236EB9C051
:1020700024F0040ED89024322332E804FBE123C07C
:10208000B8F024C0B9F000012350241001E1310C54
:10209000010EB81903E1B95101E1320C020EB81971
:1020A00003E1B95101E1330C040EB81903E1B95150
:1020B00001E1370C070EB81903E1B95101E1430CF6
:1020C000060EB81903E1B95101E1390C080EB8192F
:1020D00003E1B95101E1340C0B0EB81903E1B95118
:1020E00001E1420C0A0EB81903E1B95101E1360CC5
:1020F0000F0EB81903E1B95101E1440C030EB819F0
:1021000003E1B95101E1410C050EB81903E1B951E0
:1021100001E1380C090EB81903E1B95101E1350CA0
:102120000D0EB81903E1B95101E1460C0C0EB819B6
:1021300003E1B95101E1300C0E0EB81903E1B951B8
:1021400001E1450CFF0CD9CFE6FFE1CFD9FFE65204
:10215000DF6883DFDF6E81DFFF08FDE1DF50E552DE
:08216000E552E7CFD9FF1200A0
:08216800D9CFE6FFE1CFD9FF5A
:102170000F0E831695169594959295908C948C924B
:102180008C9014EC00F0300EE66EF5EC13F0E55296
:10219000050EE66E39EC15F0E552300EE66EF5EC04
:1021A00013F0E552010EE66E39EC15F0E552320EF1
:1021B000E66EF5EC13F0E5521EEC15F00009FCE1BB
:1021C0001EEC15F00009FCE1FE0EDBCFE6FFF5EC9E
:1021D00013F0E5521EEC15F00009FCE1080EE66E66
:1021E000F5EC13F0E5521EEC15F00009FCE10F0EC2
:1021F000E66EF5EC13F0E5521EEC15F00009FCE17B
:10220000010EE66EF5EC13F0E5521EEC15F0000938
:10221000FCE1130EE66EF5EC13F0E5521EEC15F042
:102220000009FCE1800EE66E81EC13F0E552E55208
:06223000E7CFD9FF120008
:0A223600D9CFE6FFDACFE6FFE1CFD3
:10224000D9FFE2CFDAFFE652E652E652E652D95023
:10225000F90F236EFF0EDA20246E020E23C0DBFF7F
:10226000030E24C0DBFF020EDBCFE6FF030EDBCF45
:10227000E6FFF90EDBCFE6FFFA0EDBCFE6FFFB0E43
:10228000DBCFE6FFD950FC0FE66EFF0EDA20E66EDC
:102290000FEC04F0236E070EE15C02E2E16AE55206
:1022A000E16E2350F3CFDEFFF4CFDDFFFC0EDBCF7A
:1022B000E9FFFD0EDBCFEAFFEF6ADECF23F0DDCFD3
:1022C00024F023C0F3FF24C0F4FF040EE15C02E21B
:1022D000E16AE552E16EE552E5CFDAFFE7CFD9FFDB
:0222E0001200EA
:0E22E200E40EF66E070EF76E000EF86E0001A9
:1022F0000900F550B36F0900F550B46F03E1B367FF
:1023000001D03DD00900F550AE6F0900F550AF6F18
:102310000900F550B06F09000900F550E96E090099
:10232000F550EA6E090009000900F550B16F090087
:10233000F550B26F09000900F6CFB5F0F7CFB6F04F
:10234000F8CFB7F0AEC0F6FFAFC0F7FFB0C0F8FFF0
:102350000001B15302E1B25307E00900F550EE6EFF
:10236000B107F8E2B207F9D7B5C0F6FFB6C0F7FF7C
:10237000B7C0F8FF0001B307000EB45BBFD712006F
:10238000D9CFE6FFDACFE6FFE1CFD9FFE2CFDAFF20
:10239000FB0EDBCF23F0FC0EDBCF24F00001800E20
:1023A00024141AE1FB0EDBCFE9FFFC0EDBCFEAFFC2
:1023B000EECFF3FFEDCFF4FFEE2A000EEF22F3CFC6
:1023C000E9FFF4CFEAFFFD0EDBCFEFFFEF50246A09
:1023D000F36E24C0F4FF10D0FB0EDB50FE0806E1C4
:1023E000FD0EDBCFE6FF90EC15F005D0FD0EDBCF48
:1023F000E6FF03EC00F0E552E552E5CFDAFFE7CF68
:04240000D9FF1200EE
:0C2404005768656E2052656164790050D5
:1024100072657373206F6E652831290047726F757E
:102420007020422045786F647573004D6963726F48
:10243000502050726F6A65637400506C65617365FB
:1024400020776169740050656173652077616974F4
:102450000054656D703A25642E2564256343004859
:1024600052563A202564250048523A2025642062BD
:10247000706D004144433A202564004144433A20B2
:0624800025642E25640016
:0A248600D9CFE6FFDACFE6FFE1CF81
:10249000D9FFE2CFDAFFE652E652E652E652F8CF33
:1024A00002F0F6CF03F00C0EBA6E050EF66EF76A68
:1024B000300EF86E0800F550010B03E0010EDB68EA
:1024C00002D0010EDB6A010EDB5002E0949201D0D3
:1024D0009396CA94FD0EDB50CB6ECA8402C0F8FFFF
:1024E00003C0F6FF040EE15C02E2E16AE552E16E30
:0C24F000E552E5CFDAFFE7CFD9FF12007C
:0424FC0006500B0279
:10250000F3CF02F0F4CF03F00C02F3500326000ED9
:10251000F420046E06500D02F3500426000EF42041
:10252000056E06500E02F350052607500B02F350BD
:102530000326F4500422000E052207500C02F3502B
:102540000426F450052207500D02F35005260850CA
:102550000B02F3500426F450052208500C02F350ED
:0C256000052609500B02F350052612005E
:04256C00D9CFE6FFDE
:10257000DACFE6FFE1CFD9FFE2CFDAFFC26AC06A65
:10258000FC0EDB407F0B3C0BC26EFC0EDB38F00B0D
:10259000300B236EFB0EDB500F0B2310C16EFD0EB4
:1025A000DB50040DF350380B246EFD0EDB380F0B9F
:1025B000070B236EFD0EDB50800B23102410C06E22
:1025C000FC0EDBAE03D09E9C9D8CF28CC280E5524B
:0A25D000E5CFDAFFE7CFD9FF1200D4
:0625DA00FE0EE3CFE9FF55
:1025E000FF0EE3CFEAFFF36AF46AEE5203E0F34A28
:1025F000F42AFBD71200FF0EE3CFF8FFE552FF0EDF
:10260000E3CFF7FFE552FF0EE3CFF6FFE552E66AB0
:10261000E66AE66A0900F55209E0FD0EE32A05E1E3
:10262000FE0EE32A02E1FF0EE32AF4D7FD0EE3CF0C
:1026300007F0FE0EE3CF08F0FF0EE3CF09F0120023
:10264000D9CFE6FFE1CFD9FFFC0EDBCFF6FFFD0EC1
:10265000DBCFF7FFFE0EDBCFF8FF0800F5501EE0E2
:102660001EEC15F00009FCE1FC0EDBCFF6FFFD0EC1
:10267000DBCFF7FFFE0EDBCFF8FF0800F550E66E6C
:10268000CFEC13F0E552D950FC0FE96EFF0EDA20C3
:10269000EA6EEE2A000EEE22EE22D6D7E552E7CF02
:0426A000D9FF12004C
:0C26A400D9CFE6FFDACFE6FFE1CFD9FF87
:1026B000E2CFDAFFE652E652FC0EDBCF23F0FD0E4E
:1026C000DBCF24F0060ED89023362436E804FBE155
:1026D00023C0DEFF24C0DDFF010EDB50BB6EDF50E8
:1026E000E840E8403F0B300B236ECF0EBA142310A6
:1026F000BA6EE552E552E552E5CFDAFFE7CFD9FFF2
:022700001200C5
:0E270200D9CFE6FFE1CFD9FF0F0E9516831653
:10271000FE0EDB508009F00B83128C948C9207EC38
:1027200000F08C8007EC00F08C900F0E8316FE0EEC
:10273000DB38F00BF00B831207EC00F08C8007EC19
:1027400000F08C90F00E9512E552E7CFD9FF120001
:10275000D9CFE6FFE1CFD9FF0F0E95168316FE0EF7
:10276000DB504009F00B83128C948C9207EC00F044
:102770008C8007EC00F08C900F0E8316FE0EDB3879
:10278000F00BF00B831207EC00F08C8007EC00F0EC
:0E2790008C90F00E9512E552E7CFD9FF1200A3
:02279E00D9CF91
:1027A000E6FFE1CFD9FF0F0E95168316FE0EDB5024
:1027B000F00B83128C828C9407EC00F08C8007EC79
:1027C00000F08C900F0E8316FE0EDB38F00BF00B32
:1027D000831207EC00F08C8007EC00F08C90F00E78
:0A27E0009512E552E7CFD9FF120071
:0627EA00D9CFE6FFE1CFAC
:1027F000D9FF0F0E95168316FE0EDB50F00B8312D9
:102800008C948C9207EC00F08C8007EC00F08C909C
:102810000F0E8316FE0EDB38F00BF00B831207EC65
:1028200000F08C8007EC00F08C90F00E9512E552D1
:06283000E7CFD9FF120002
:0A283600D9CFE6FFE1CFD9FFFD0E78
:10284000DBCFE9FFFE0EDBCFEAFFEF5015E01EEC19
:1028500015F00009FCE1FD0EDBCFE9FFFE0EDBCF3A
:10286000EAFFEF50E66ECFEC13F0E552FD0EDB2AE7
:10287000FE0EE5E3DB2AE3D7E552E7CFD9FF1200EE
:10288000056A046A036A026A200EE76ED89006366B
:1028900007360836093602360336043605360B503D
:1028A000025C0C5003580D5004580E50055809E3B3
:1028B0000B50025E0C50035A0D50045A0E50055A2C
:0828C000062AE72EE4D71200FE
:0828C800D9CFE6FFDACFE6FFED
:1028D000E1CFD9FFE2CFDAFFE652E6520001BC9128
:1028E0009EB4BC81BE50DF6E010EBFCFDBFFDECFDA
:1028F00023F0DDCF24F023C0F3FF24C0F4FFE55222
:0E290000E552E552E5CFDAFFE7CFD9FF12002E
:02290E00D9CF1F
:10291000E6FFE1CFD9FFE6528C848C8207EC00F011
:102920008C8007EC00F0F00E8314DF6E8C9007ECC7
:1029300000F08C8007EC00F083380F0B0F0BDF12D8
:102940008C908C928C94DF50E552E552E7CFD9FF02
:02295000120073
:0E295200D9CFE6FFE1CFD9FFE6528C848C92FC
:1029600007EC00F08C8007EC00F0F00E8314DF6EB3
:102970008C9007EC00F08C8007EC00F083380F0B94
:102980000F0BDF128C908C947F0EDF14E552E55212
:06299000E7CFD9FF1200A1
:0A299600D9CFE6FFDACFE6FFE1CF6C
:1029A000D9FFE2CFDAFFE652E652FC0EDBCFDEFFC4
:1029B000DBCFDDFF010EDB50D76EDF50D66EE55268
:0E29C000E552E552E5CFDAFFE7CFD9FF12006E
:0229CE00D9CF5F
:1029D000E6FFDACFE6FFE1CFD9FFE2CFDAFFFD0E67
:1029E000DB507F0BD56ED76AD66AF294FD0EDBAE54
:1029F00002D0F28A01D0F29AD58EE552E5CFDAFF05
:062A0000E7CFD9FF120030
:0A2A0600D9CFE6FFDACFE6FFE1CFFB
:102A1000D9FFE2CFDAFFFD0EDB50FB0BCA6ECC6AAA
:102A20009E92FD0EDBAE02D09D8201D09D92CA84A3
:0C2A3000E552E5CFDAFFE7CFD9FF120036
:042A3C008C848C9268
:102A400007EC00F08C8007EC00F083AE09D08C908E
:102A500007EC00F08C8007EC00F08C908C94010C5B
:102A60008C9007EC00F08C8007EC00F08C908C943C
:022A7000000C58
:0E2A7200FF0EE3502B6EEF0E01D0F30EE76E59
:102A8000E72E40EF15F00C0E2A6EE76AE72E46EFB0
:102A900015F02A2E45EF15F02B2E3EEF15F0120003
:102AA000F36AF46AFF0EE124E96EFF0EE220EA6E9B
:102AB000ED6607D02F0EEF6404D03A0EEF6001D020
:042AC000F32A1200E3
:0C2AC400FF0EE3502B6E480E01D04C0EAC
:102AD000E76EE72EFED7E76AE72EFED72B2EF7D755
:042AE00000001200E0
:0C2AE400000EF36E00EE00F0080E01D8AA
:102AF0001200EA6002D0EE6AFCD7F350E9601200DF
:042B0000EE6AFCD7A6
:0C2B040013EE00F023EE00F0F86A019CD4
:102B100071EC11F0C9EC15F072EC03F0FBD7120068
:102B2000FF0EE350ACBA04D0AF6AAB8EAC8A949C73
:0C2B3000ACA2FED7AD6EF36EF46A12008A
:042B3C00FF0EE35055
:102B4000E84E1200000000D000D000D0E82EFAD7E6
:022B5000120071
:0E2B5200C450266E256AC3502510F36E26C0AF
:042B6000F4FF12006C
:0C2B640030313233343536373839616295
:052B70006364656600CE
:062B7600CD909D901200BD
:042B7C00D59EF29A56
:022B8000120041
:062B82009D94BD6A1200E3
:062B8800C2909D9C1200AA
:022B8E00C28201
:022B9000120031
:022B920012002F
:0C2B940000000000000000000000000035
:102BA0000000000000000000000000000000000025
:102BB000000096009B00010001000000000000DF03
:082BC00000000000000000000D
:020000040030CA
:010003001EDE
:010005008179
:010006008178
:00000001FF
